:04000003000026557E
:020000040000FA
:10000000A06C002055260000198C0000412600003D
:100010004126000041260000412600004126000044
:100020000000000000000000000000002527000084
:100030004126000000000000DD28000041260000ED
:1000400055290000552900005529000055290000B8
:1000500055290000552900005529000055290000A8
:100060005529000055290000552900005529000098
:100070005529000055290000552900005529000088
:1004800053B94AB9002908BF00281CBF4FF0FF31FB
:100490004FF0FF3000F00CB8ADF1080C6DE904CE60
:1004A00000F008F8DDF804E0DDE9022304B070474D
:1004B000704700BF2DE9F0478C468E46089E1546D2
:1004C00004461946002B40F0D080724547D9B2FA55
:1004D00082F74FB1C7F120030EFA07FCBD40BC40C4
:1004E00020FA03F343EA0C0C4FEA154EA8B2230C92
:1004F000BCFBFEF80EFB18CC08FB00F943EA0C43EA
:10050000994528D9EB1808F1FF3204D2994502D950
:10051000A8F102022B44A3EB0903A4B2B3FBFEFC37
:100520000EFB1C330CFB00F044EA0344A04214D938
:100530002C190CF1FF3304D2A04202D9ACF1020312
:100540002C44241A43EA02401EB1FC4000233460CC
:100550007360BDE8F0874246DDE76346F1E7002AB5
:1005600079D0B2FA82F3002B3FD01946C1F12003B3
:1005700002FA01F500FA01F42EFA03F20EFA01FE76
:1005800020FA03F3AFB243EA0E034FEA154EB2FB73
:10059000FEFC0EFB1C201A0C0CFB07F842EA004282
:1005A00090455AD9AA180CF1FF3004D2904502D9CF
:1005B000ACF102002A44A2EB08029BB2B2FBFEFCA3
:1005C0000EFB1C220CFB07F743EA02439F4246D96D
:1005D000EB180CF1FF3204D29F4202D9ACF10202B7
:1005E0002B44DB1B42EA004202E0AEEB0203012295
:1005F0004FEA154EAFB2200CB3FBFEFC0EFB1C33D2
:100600000CFB07F840EA034398452AD9EB180CF194
:10061000FF3004D2984502D9ACF102002B44A3EB81
:100620000803A4B2B3FBFEFC0EFB1C330CFB07F764
:1006300044EA0344A74216D92C190CF1FF3304D223
:10064000A74202D9ACF102032C44E41B43EA004068
:100650000F46114678E71F2188E76046ABE7624600
:10066000BFE76046DBE76346EFE7734506D916B997
:10067000002108466DE7C6E9000EF9E7B3FA83F7F3
:1006800087B9734501D3824207D8841A6EEB0303FE
:1006900001209C461EB900215BE73846FAE7C6E90F
:1006A000004CF8E7C7F1200CBB4000FA07F422FA2F
:1006B0000CF520FA0CF1BA401D432EFA0CF30EFA99
:1006C00007FE4FEA154941EA0E011FFA85FEB3FB0A
:1006D000F9F809FB18300B0C08FB0EFA43EA00434B
:1006E0009A4540D9EB1808F1FF3004D29A4502D957
:1006F000A8F102002B44A3EB0A0389B2B3FBF9F87B
:1007000009FB183308FB0EFE41EA03418E452CD944
:10071000691808F1FF3304D28E4502D9A8F102030B
:10072000294443EA0040A1EB0E01A0FB0298414599
:10073000CE46434602D306D14C4504D20138B9EB2C
:10074000020E68EB0503002EA5D0B4EB0E0261EBA0
:10075000030101FA0CFC22FA07F3F9404CEA030307
:10076000C6E9003197E74046C5E74346D9E70000B0
:1007700070B4174E0C46B042154608D00136B04250
:100780000FD0023EB04210D070BC06F097BD0AA355
:10079000D3E90023C5E900230E4B0020236070BC81
:1007A000704707A3D3E90023F4E707A3D3E90023A5
:1007B000F0E700BFAFF3008002C0FF7F0000000041
:1007C00003C0FF7F0000000001C0FF7F00000000A9
:1007D00002C0FF7F03004E8030B53F4B3F4A87B0D9
:1007E000C2F80036C2F80436C2F80836C2F80C3631
:1007F000C2F81036C2F81436C2F81836C2F81C36E1
:1008000002F58052C2F800364921C2F80436344855
:10081000C2F80836C2F80C36C2F81036C2F81436E0
:10082000C2F81836C2F81C3608F05AF907F041FD34
:1008300049212C4808F054F903A800F0BFFD2A4BC9
:100840001B68834204D04521284808F049F9FEE797
:100850004921059A264808F043F9039925484B7D1C
:100860000A7DC98A0091492108F03AF949212248B4
:1008700008F036F94FF47841002003F099F8044667
:1008800020B145211D4808F02BF9FEE702A99DF88B
:10089000100000F03BF8029A059B194D1344039A8F
:1008A000128913442B6003F017F801F065F901F089
:1008B00047F908F036FA02F0DBFA01F0FBFE84F3A8
:1008C0000B8884F30A880F4B2868984745210E4807
:1008D00008F006F9FEE700BF3546526E0080105062
:1008E000E6CE0000FFCE0000D41000202FCF000085
:1008F00052CF000081CF00009FCF0000C4CF000086
:10090000B005002061000020F7CF0000024608B5C6
:1009100038B105480023452108F0E2F86FF01500D2
:1009200008BD0860FCE700BF1AD0000021B1012912
:1009300006D06FF015007047044B53F83000704735
:10094000024B03EBC0035868704700BF78B7000044
:100950002DE9F04FADB0DDF8E0C0554E0DF1700B54
:100960003468CDF80CC0DDF8DCC0CDF804B0CDF8AB
:1009700008C0DDF8D8C08046CDF800C089461546CD
:10098000399F00F0E5F820B1346820462DB0BDE86D
:10099000F08F27B140225946384608F0ABF90023C2
:1009A000494600932A464FF6FF7306A807F082FCDB
:1009B00081460028E8D1294640460B9F07F049FDB3
:1009C000B842E1D34FF0FF37DFF8E880DFF8E8A066
:1009D0000DF1120304AA05A906A807F0B9FC002826
:1009E000D2DB60D1059906A807F0FDFCBDF81230F6
:1009F00040B94FF6FF70314931F8022B8242C3D023
:100A00009A42F9D1122B15D0242B2CD0012BDFD1F7
:100A1000BDF81030402BB7D8284605990CAA08F02D
:100A20007AF80028B0D19DF810100CA800F048F812
:100A30000746CDE7BDF81090B9F1400FA4D14B4661
:100A4000284605990CAA08F066F800289CD14A4669
:100A500058460CA907F0D5FCD8F80030834293D152
:100A60004FF00109B4E7002F1ADBDAF800309F429B
:100A700016DABDF81040402C86D123462846059949
:100A80000CAA08F048F800287FF47EAFFFB2214698
:100A90005846BDF8103000970CAA00F029F904461A
:100AA0004FF0FF3794E7B9F1010F7FF46DAF6CE7BA
:100AB00034010020D410002080B70000B8CE000020
:100AC0002DE9F041402980460D46ADF59B6D06D9D4
:100AD0004FF0FF3420460DF59B6DBDE8F0810024FA
:100AE000184B194E1F68BC42F2DA4FF41372002102
:100AF000A3A808F00AF94FF41372A3A910A808F0EC
:100B0000F9F8124910A809F0D7F8736810A81A6804
:100B100056F8081B09F0F0F84022002369460DEB57
:100B20000200A393A3AB09F0FBF810A809F0B9F8F1
:100B30002A464146684608F0CDF80028CAD001345C
:100B4000D1E700BF80B7000084B700000B000002AF
:100B50002DE9F04FADF2A44D0C46934600214FF421
:100B6000137295A89A46DDF8D054DDF8D46408F0E5
:100B7000CCF895A94FF4137202A808F0BBF83249DB
:100B800002A809F099F835B1002E04DD3246294655
:100B900002A809F0B1F8002763892289D4F80C90E3
:100BA00013442A4D2A4C2B4E9944B9450DD80024A4
:100BB00095AB4022DDF8CC1402A8959409F0B0F86A
:100BC00002A809F06EF8234632E0C5F80046C5F8E1
:100BD0000446C5F80846C5F80C46C5F81046C5F8E1
:100BE0001446C5F81846C5F81C46C6F80046C6F8AF
:100BF0000446C6F80846C6F80C46C6F81046C6F8BD
:100C00001446C6F81846C6F81C46DDF8C834A9EBE9
:100C10000708984528BF98465246434639465846E5
:100C200007F079FF48B1019002A809F03AF8019B5A
:100C300018460DF2A44DBDE8F08F4246514602A879
:100C400009F05AF84744B0E70B000002008010504A
:100C50003546526E00901050F0B5214C0E4654F8B7
:100C6000331004EBC30489B063680091054618682B
:100C7000174601443023684601AA07F0A8FD18B1C1
:100C8000184B186809B0F0BDDDE900431C4421464B
:100C9000684605AB02AA07F0C2FD0028F0D1039A0E
:100CA000032AEDD11049049808F014F80028E7D180
:100CB0002146684601AA07F09EFD0028E0D1DDE943
:100CC000003299188C42DBD1202AD9D13A463146DC
:100CD000284600F0DFFE0028D2D0044BD1E700BF49
:100CE00084B7000034010020B0D60000D4100020EA
:100CF000402908B502D0064B186808BD402B02D029
:100D0000034B1868F9E79DF80830FFF7A5FFF9E7EE
:100D100034010020094A40000B7852F820108B4221
:100D200009D0013052F8202040F21620934218BF1B
:100D30004FF0FF30704740F2162070478CB700002C
:100D40001FB5582303FB0100046A1023A1686A46FB
:100D50002046103907F0DFFE034640B122784521D6
:100D6000064807F0BDFE0024204604B010BD102246
:100D70006846034907F0AEFFF6E700BF40D0000029
:100D8000D6CE000038B50E4B0446002918BF0B46DE
:100D9000436203F5B2630121036507F09AFB58B97A
:100DA0000221204607F095FB054638B9206A07F076
:100DB000DCFEE065284638BD0125FBE70925F9E79B
:100DC000B40500202DE9F04F81460F469A4614469F
:100DD00085B0002A51D08368994256D25B1A93425B
:100DE00053D307F0C2FE8346484607F0C5FE1022E3
:100DF0000146684607F089FFCBF100083819BAF1BF
:100E0000000F07D007EA0808A0EB0B07204D214C84
:100E1000214E04E000EA0808F8E7A7EB0B07474576
:100E20002BD05B466A463946484607F089FE28BB08
:100E3000C5F80046C5F80446C5F80846C5F80C468E
:100E4000C5F81046C5F81446C5F81846C5F81C463E
:100E5000C6F80046C6F80446C6F80846C6F80C466A
:100E6000C6F81046C6F81446C6F81846C6F81C461A
:100E7000BAF1000F05D04745CFD8002005B0BDE836
:100E8000F08F5F44B845CAD8F7E74FF0FF30F5E779
:100E9000008010503546526E009010502C2359435C
:100EA0000E4B42184158994206D1D16813895B18FC
:100EB00002D25189C91801D300207047136A9B6878
:100EC0009942F9D2106920F4F97020F00100000570
:100ED000000DB0FA80F04009704700BF3DB8F396AE
:100EE0001FB52C2303FB02010023CDE9023301933C
:100EF0004FF4807300930A6A024BFFF729FD05B097
:100F00005DF804FB541A002073B50021064608461C
:100F1000FFF70CFD06F120010546C0B201F0D2F941
:100F20000446C8B90121FFF701FD06F14C01054651
:100F3000C0B201F0C7F9044658B10123CDE900342D
:100F4000064800232A46452107F0CAFD304607F02F
:100F500034FB204602B070BD0023EFE76CD00000E8
:100F60002DE9F0412C2707FB010704460D461646E4
:100F7000D7F8208007F000FB10B93B69DB061BD5D2
:100F8000B5B14146204607F05AFBF379042B0AD14C
:100F90002046216A07F053FB024648B9492114480C
:100FA00007F09EFD04E0002002F0B6FD0428EFD01B
:100FB000104B1868BDE8F08129462046FFF76EFF08
:100FC00070B90D4B18680D4B1B688342F2D06DB1A0
:100FD0000121404607F0CBFA094A45210948DFE7DD
:100FE0002A4631462046FFF77BFFECE7064AF4E746
:100FF000BBD000003001002034010020D4100020BC
:10100000B1D00000FAD00000A9D00000004870471D
:10101000D814002073B50D46002104462846CDE9BA
:10102000001107F0D7FA28B323681A4EB34203D150
:10103000204601AA07F00FFAE36AB34204D16A46D8
:101040000121204607F007FADDE900239A4284BF18
:1010500013460192AB60019A2946204600F0D4FB6A
:101060000D4B1A68002A03DD57210C4807F038FDA4
:1010700002B070BD01462046FFF762FE064605F14C
:10108000080107F0C9F9AB683046019307F042FD4B
:10109000E1E700BF3DB8F3963815002022D10000EB
:1010A0002DE9F84F884691469A4600260B9F224C20
:1010B000224DBE4201D300200FE0A7EB060BBBF58B
:1010C000806F28BF4FF4806B40465B461C4A06EB9E
:1010D0000A0107F020FD10B10120BDE8F88F0A9940
:1010E0005B464846164A711807F02AFD0028F3D1DE
:1010F000144B5E44C3F80046C3F80446C3F80846E0
:10110000C3F80C46C3F81046C3F81446C3F8184693
:10111000C3F81C46C5F80046C5F80446C5F808469D
:10112000C5F80C46C5F81046C5F81446C5F818466B
:10113000C5F81C46BDE700BF3546526E0090105002
:10114000D8100020008010502DE9F04186B00E46E6
:101150000446FFF7D9FE014620B145218E4807F02D
:10116000BFFCFEE72046FFF70DFE054678B90022DA
:101170002046114607F007FA054610B30022572112
:10118000864807F0ADFC012384F8583009E0B2220C
:101190005721834807F0A4FC01239D4284F858306E
:1011A000E5D194F85830042B8DF80F3000F28A8086
:1011B000012B00F28E8000F0A180FF2384F85830CC
:1011C0009CE0204600F02EFA012770B1754B2046B6
:1011D00002A9CDE903350297059507F064FA38B105
:1011E0002A465721704807F07BFC84F85870D8E7EE
:1011F00002A807F0EFF980F0010102AA2046C9B267
:1012000007F0C1F902460028B8D102A807F0E2F9B8
:10121000054660BB204602A9FFF7FCFE9DF80F3093
:1012200084F85830033B012B06D8284600F0E8F834
:1012300010B1FF2384F858309DF80F30023B022B89
:101240000BD8002000F0C6F838B1FF2384F85830DE
:101250004521564807F044FCFEE794F85830FF2B30
:10126000F6D000222046114607F08DF98BE79DF855
:101270000F80B8F1010F18D1104602F04DFC831E0B
:10128000022B05460ED84146204602AAFFF768FE0B
:10129000474B1B68984205D0464B1D68A84214BFB7
:1012A0000525012584F858507BE73946204602AAD7
:1012B000FFF756FE3E4B1B68984214BF05239DF86E
:1012C0000F3061E7052B7FF478AF002000F098F82D
:1012D00011E0204602A9FFF79DFE94F85830DA1E6F
:1012E000012A14D8002000F08BF800287FF465AFA5
:1012F000002000F06FF800287FF45FAF94F85830BA
:10130000FF2B08D14521294807F0EAFBFEE7023B05
:10131000012BF3D8ECE70022012B274F019211D0CB
:101320001146204607F02FF960B13D6810220021D8
:1013300002A807F0EAFC204607F03FF9284606B06D
:10134000BDE8F081002220461146FFF709FEDFF8D4
:1013500060803D68D8F800309842E7D1A842E5D0D7
:10136000144B1B689842E1D00021204607F023F976
:101370000028DAD1019B01330193019B012B00D09E
:10138000FEE7206A06F093FF3071236A5B683460E1
:10139000D8F80050B360C9E751D10000C4D10000B3
:1013A00082D1000001010001F0D100001AD200003A
:1013B000D4100020300100203401002010B5044674
:1013C000002007F0A0F802482146FFF7BDFE10BD3F
:1013D000D814002013B5094B01A913F8300000F010
:1013E00071FF48B9019807F007FF0446019807F01C
:1013F00091FB204602B010BD0124FAE794B700002B
:101400001FB50F4B01A913F8300000F05BFFA8B91E
:10141000019802A902F02AFB044668B99DF80B3036
:10142000032B03D1019807F0B5FE0446019807F09D
:1014300071FB204604B010BD0124F7E70124F8E752
:1014400094B700002DE9F34106460C4617461D46A9
:101450000BB9002121E0184607F0BCF8014600282E
:10146000F7D13046FFF76CFC18B9012002B0BDE897
:10147000F08101A906F0D0FF0028F6D1019930468D
:1014800007F042F9736A59686B79012B18D1002C67
:10149000DFD12B68834298BF00212C2303FB046615
:1014A0003A462023306A07F036FB0028DDD1002DB4
:1014B000DCD038680D4BC01A18BF4FF0FF30D5E7AD
:1014C000022BC6D12B68012B05D98342C1D8B4FAAF
:1014D00084F46409BDE7BCD1002CDED0012CB8D166
:1014E0002C79023C18BF0124B3E700BF3DB8F39646
:1014F0002DE9F04F82460C4689B001460020914606
:10150000FFF708FCB0F100087EDBE36D5046029364
:1015100006F079FF01234FF0000B4FF0FF343D4EF2
:101520003D4D3E4F04900193B8F1000F15D1BBF132
:10153000010F03DD45213A4807F0D2FA631C08D0B9
:10154000B12C53DC40F201130134C9F80040A9F872
:101550000430404609B0BDE8F08FC6F80056C6F822
:101560000456C6F80856C6F80C56C6F81056C6F803
:101570001456C6F81856C6F81C56C7F80056C7F8D1
:101580000456C7F80856C7F80C56C7F81056C7F8DF
:101590001456C7F81856C7F81C5604989DF808103A
:1015A00008F1FF3308F1FF3C0CFB010103935046A7
:1015B00001230DF11F0207F0AEFA031E059326DB8F
:1015C000012250460DF11F0107F07FFD059B40B140
:1015D000019A934201D00BF1010BDDF80C800193CD
:1015E000A2E7B4F1FF3F08BF4446F6E70223B23C4E
:1015F00089F80530631004F0010401330134C9F89F
:10160000003089F80440A4E74FF00708A1E74FF045
:1016100001089EE7008010503546526E0090105031
:1016200026D20000F8B5866A456D0446AE4208D061
:101630006B1CB34205D05721164807F051FA002021
:10164000F8BDB22E19D957211348F6E7626A02EBAA
:10165000C3025768226D02EBC3025268974202D060
:1016600057210E48E9E701339D42EFD1204607F0AC
:1016700020F928B957210A48DFE700231F46F3E77E
:10168000AE4205D9636A03EBC5035B68BB42E7D191
:101690000120D5E749D2000081D20000B0D200007D
:1016A000DCD2000010B588B0044604A9006A02F03C
:1016B000DDF99DF81020012A40D0254B2549032A49
:1016C00008BF0B469DF81320492102929DF8122075
:1016D000214801929DF811200092204A07F000FA5B
:1016E000E06C06A902F0C2F99DF81820012A27D063
:1016F000174B1849032A08BF0B469DF81B204921A8
:1017000002929DF81A20144801929DF81920009227
:10171000134A07F0E5F99DF81030012B12D19DF81E
:101720001230032B0ED19DF81830012B0AD00D4832
:10173000492107F0D5F9022008B010BD0A4BC1E7D6
:10174000094BDAE70948492107F0CAF90020F3E715
:1017500015D300001ED3000032D3000024D30000B4
:1017600073D3000083D3000019D30000A2D300007C
:1017700070B54B6814461E4A03F0FF239342064699
:101780000D4686B02FD10B68012B2CD1204604A921
:1017900002F06CF99DF81020012A26D0154B16494D
:1017A000032A08BF0B469DF81320492102929DF899
:1017B0001220124801929DF811200092104A07F061
:1017C0008FF99DF81030032B0DD12146304606F0DD
:1017D00036FF204607F0DEFC2046A96806F02AFE08
:1017E000204602F023F906B070BD064BDBE700BFD0
:1017F0000001000415D300001ED3000032D3000006
:1018000073D3000019D300002DE9F04F05461646AA
:1018100089B00C469848492107F062F931462846BC
:1018200006F072FF6B6A03902046D3F804A006F01E
:10183000D1FEF8B1E86D06F071FE0023AE6A013EFC
:101840005344834201D2013EFAE7039BB34211D3D2
:1018500057218A4807F044F9039A06FB0AF35721F7
:1018600002FB0AA2864807F03BF90123E37109B0A5
:10187000BDE8F08FEB6C21461A4628460293D5F856
:1018800020B0FFF775FF6379012B70D1DDF80C9064
:101890007C4EDFF8F4817D4F64E0C6F80086C6F820
:1018A0000486C6F80886C6F80C86C6F81086C6F800
:1018B0001486C6F81886C6F81C86C7F80086C7F8CE
:1018C0000486C7F80886C7F80C86C7F81086C7F8DC
:1018D0001486C7F81886C7F81C8622680399C2F1D7
:1018E00001030B4499453BD86B6A012A196853F8E8
:1018F000390003EBC90353F8083CA0EB0100A3EB4C
:101900000103049005930FD1E368022B08D05946D8
:10191000284606F094FE22465946284606F0A4FEC4
:101920002846029906F08BFE002352460499584639
:1019300006F010FE049B5A46594600932846059B24
:10194000CDF804A0FFF7ACFB2146284606F04FFE79
:1019500023680133236018B14D4A136801331360C3
:1019600009F1FF39B9F1000F97D101232360022358
:101970004FF00109434EDFF81081444F6371039B20
:101980004B45FFF474AFC6F80086C6F80486C6F867
:101990000886C6F80C86C6F81086C6F81486C6F8FF
:1019A0001886C6F81C86C7F80086C7F80486C7F8EC
:1019B0000886C7F80C86C7F81086C7F81486C7F8DB
:1019C0001886C7F81C862368994551D36A6A4FEA7E
:1019D000C90352F83910083B069111680591296D29
:1019E000C8580968411A0491217901293ED1D1587A
:1019F000059B5246C91A58460023079106F0AAFDD6
:101A00000799049B5A46009128460299CDF804A0F4
:101A1000FFF746FB2146284606F0E9FD0223237125
:101A200018B11B4A1368013313600023524604990E
:101A3000029806F08FFD049B594600932846DDE985
:101A40000523CDF804A09B1A029AFFF729FB214633
:101A5000284606F0CCFD236801332360012323715F
:101A600030B10B4A13680133136001E00229DCD066
:101A700009F1010983E700BFB9D30000E2D30000F8
:101A800011D40000008010503546526E0090105066
:101A9000381500202DE9F0418AB005460E4617465C
:101AA00000211C2203A81C4607F02FF904F096FC25
:101AB000024640B145211D4807F012F80024204697
:101AC0000AB0BDE8F08144F24213ADF80C304FF497
:101AD0000063DFF85C802146CDE90538202202ABA7
:101AE00003A804F02BFB044618B102464521114817
:101AF000E2E740232A46CDE9007341463346029887
:101B000008F01FF9024670B145210B4806F0E8FFC6
:101B1000029804F0CDFA02460028D0D05721074899
:101B200006F0DEFFCBE70124F2E700BF42D400005D
:101B30000008000662D4000084D40000B2D4000083
:101B4000BFF36F8F72B600234FF0FF30094A03F1E5
:101B500020010133102B42F82100F8D100234FF06F
:101B6000FF30044A03F160010133102B42F82100D9
:101B7000F8D1704700E100E02DE9F0430027DFF8DD
:101B8000C080DFF8C090304D85B04FF0FF3658F878
:101B9000044BC4F30830C4F8086300F0E3FD0123EC
:101BA000E36200236846C4F85031D4F85021C4F8E9
:101BB0004C31D4F84C21C4F82431D4F82421C4F891
:101BC0000035D4F804260092D4F80C260192D4F8FB
:101BD00010260292D4F80826C4F804660392C4F8CA
:101BE0000C66C4F81066C4F8086650F8041B4A1C5A
:101BF00010D05F2901F01F024FEA51141BD859F889
:101C0000241001EB8201D1F880202A4042F0020228
:101C1000C1F880200133042BE7D10137032FB4D161
:101C200001220A4B5A60DA604FF0FF32C3F80823F2
:101C300005B0BDE8F0830023203253F82230FFDEE8
:101C4000ACB70000A0B70000F0F0FCFF00E01050BF
:101C5000014B1B68184700BF38010020014B18607A
:101C6000704700BF3801002007B50B46024600212F
:101C70000348009100F006F803B05DF804FB00BFD4
:101C8000511C00002DE9F04F82464FF000098DB045
:101C90001D46531E01910393039B58785C1C252815
:101CA00019D100204FF0FF381E4644460346023645
:101CB000029031780396392952D81F2914D8002967
:101CC00000F0F38101992520D04701993078D04761
:101CD00009F10209E0E7002800F0E7810199D04707
:101CE00009F101090394D7E7A1F12002192AE9D8E3
:101CF00001A757F822F000BF97200000C51C000084
:101D0000C51C000097200000C51C0000DD1D000060
:101D1000C51C0000C51C0000C51C0000C51C00003F
:101D20002B1E000097200000C51C00003F1E000075
:101D3000E91D0000C51C0000F91D0000191E00006F
:101D4000191E0000191E0000191E0000191E0000B7
:101D5000191E0000191E0000191E0000191E0000A7
:101D6000582900F00281A1F16302D7B2172FA9D838
:101D7000172AA7D801A757F822F000BFD11F0000EB
:101D8000651E0000C51C0000C51C0000C51C00002D
:101D9000451E0000651E0000C51C0000C51C00009B
:101DA000451E0000C51C0000C51C0000C51C00002D
:101DB000171F0000C51C0000C51C0000A51F000067
:101DC000C51C0000651E0000C51C0000C51C0000ED
:101DD000171F0000C51C0000451E000025200199AA
:101DE000D04709F1010957E74FF00008029A02F0C5
:101DF000FE02029201365CE7002C0DDAB8F1000F0A
:101E00000DDA029A002A00F048810A2224EAE474DA
:101E100002FB0414303CEDE7B8F1000FF5DB0A22B9
:101E200002FB0812A2F13008E4E7B8F1000F55F800
:101E3000042B80F23481002A80F233815442022242
:101E40000292D7E7682903D1682B06D14823D1E74E
:101E50006C2902D16C2B00F02681002B7FF432AF6D
:101E60000B46C7E77A2B06D1752955F8046B14D1B8
:101E70004FF0000B0CE06C2BF6D04C2BF4D1073557
:101E800025F00703752903F10805D3E9006B06D196
:101E9000202839D1874F013C09E04FEAE67BBBF1AE
:101EA000000FF5DA7642844F6BEB4B0B013C0DF1E2
:101EB0002D03059300230493304659460A2200233C
:101EC000FEF7DEFA059BB446303203F8012D5A4680
:101ED0000593049BBCF10A0F8B4672F1000203F1DB
:101EE000FF3106460491E7D2C3F1010B30330DEB0D
:101EF0000306B8F1000FA6F1040662DA029BD907C7
:101F000077D4A8EB0B036DE02B280ABF6B4F6C4F07
:101F100004F1FF34CBE7702926D155F8042B0023B8
:101F2000002A68D0674F023C002601F06001A1F151
:101F3000390B0DF12D0E02F00F01092988BF59440C
:101F400030310EF8011D102A4FEA121141EA0371D7
:101F50004FEA131C73F1000306F1FF301ED2C6F1E5
:101F6000010B06F13003C2E778216C2B03D100236B
:101F700055F8042B08E04C2BF9D1073525F0070361
:101F80001D465B6855F8082B232805D1582901D038
:101F90007821C7E74C4FC6E7494FC5E706460A46D2
:101FA0006346C8E755F8046B304606F08CFEB8F17E
:101FB000000F834602DB4045A8BFC3464FF0000830
:101FC0003F4FA8EB0B03002B0CDDA4EB08040BE048
:101FD00055F8043B4FF0010B8DF818304FF0FF33EC
:101FE000374F06AEA4EB0B04029A920717D4A04613
:101FF0000DE0A046E5E76FF004034FF0050B304F0E
:10200000324EEFE7029320200199D047029BB8F1AE
:102010000108F7D524EAE472013CA41A9144B846B9
:1020200006E0049202930199D047049A029B9046DD
:10203000424612F8010B0028F3D11A46013A15D591
:102040005A4623EAE373013A18D5BBF1000FACBF3F
:10205000C7EB0B077F4226461F444F44013E16D56F
:10206000002CA8BF3F1907EB080915E6049302925C
:1020700030200199D047049B029ADFE70493029233
:10208000019916F8010BD047049B029ADBE70199EE
:102090002020D047E2E70846ACE60122D0E6904691
:1020A000A8E61446A6E64C23A4E648460DB0BDE8D3
:1020B000F08F00BFDED40000DCD40000E0D40000CC
:1020C00061D40000E2D40000E5D40000E8D40000B0
:1020D0002DE9F047058B0446280717460CD5012942
:1020E0000CBF45F0100545F02005258387F31188C6
:1020F000BFF36F8FBDE8F087022905F0070540F0B8
:102100009480204606F0FCFB052864D801A353F810
:1021100020F000BFED2000002B220000D72100009E
:1021200099210000B3210000C521000001F0070340
:102130005A1F012A1FD8002221F00701062BD4F8CC
:10214000008089B2C4E9002209D1434603E0628BD2
:10215000013262831B68002BF9D141F00201204655
:10216000218306F0CDFB4FF0000900286DD041F02F
:102170002001218369E0042B0AD121F0070189B2F3
:102180002046218306F0BCFB10B141F020012183E1
:102190004FF00008C14658E02369D3F80090238B24
:1021A00023F0070343F006034FF00008238346465D
:1021B0004BE02369D3F80490238B23F0070343F00B
:1021C0000403F1E72369D3F80890238B23F0070376
:1021D00043F00503E8E74FF00008C146E7E70122B6
:1021E00043F00803238387F31188BFF36F8F002A1E
:1021F0003BD1B8F1000F4AD1B9F1000F02D020460F
:102200002C49C847EFF31187202383F31288BFF3CB
:102210006F8F238B23F008039BB22383D9063FD50E
:1022200023F01002228303F007056669218B002E3C
:10223000BFF67CAF00239946D4F8008021F0070157
:10224000C4E9003341F001012183238B03F0070A25
:10225000AA4502D0A268002AC1D1B8F1000F02D16C
:10226000B9F1000FDAD00022BAE7A1680029C0D086
:102270000D680029BDD03346524620464F68B84706
:102280001DB12B6829461D46F3E72B46FAE7414668
:10229000334652462046D8F8008006F05DFBA8E79A
:1022A0009A067FF523AF23F02002228303F007056F
:1022B00027E700BF85890000014B036000207047BD
:1022C000B8B7000070B5104B0D461C68B4B10F4B89
:1022D000196800238B4202DB6FF0010070BD2246BB
:1022E00012F8106B864202D014460133F2E7E06820
:1022F00007F02BFA28B100202C60EFE76FF00C00FC
:10230000ECE76FF01200E9E73C010020B8B70000ED
:1023100010B5436888B0029383680C46CDE9033258
:1023200000230A68C068CDE90623054901AA059380
:1023300006F075FD079808B9059B236008B010BD2D
:10234000878B000008B5054806F0C3FA044806F07C
:10235000C0FA044806F0BDFA002008BDEED4000023
:102360001FD5000052D5000008B50348034A0021DC
:10237000121A06F043FC08BD900300205C230020E5
:10238000074808B5074A0849121A06F039FCBDE8A3
:1023900008400648064A0749121A06F031BC00BF39
:1023A000A00000208C03002068D8000060000020FE
:1023B000A000002028D8000030BFFFF7FDBF00BFFD
:1023C000154B9A6A12F0007F9A6A14BF1E201D20D6
:1023D00012F0807F9A6A18BF1F2012F4801F9A6A39
:1023E00018BF022012F4002F9A6A18BF212012F49D
:1023F000802F9A6A18BF222012F4003F9A6A18BFF1
:10240000232012F4803F9A6A18BF24206FEA024208
:102410006FEA12429A62704700ED00E010B5194B66
:102420000246986A9C6A10F4805F14BF1720162039
:1024300014F4006F9C6A18BF1820A40509D5986B86
:10244000986A000404D51AB19A6A22F400429A628A
:1024500019200C4B9A6A12F4806F9A6A18BF1A20DE
:10246000D2050CD49B6A13F4005F18BF1C20054AE8
:10247000936A43F47F43936200230B7010BD1B20CB
:10248000F5E700BF00ED00E010B51C4B0246986A6E
:102490009C6A10F0100F14BF1120102014F0080FC8
:1024A0009C6A18BF1220A40709D5586B986A0006C9
:1024B00004D51AB19A6A22F080029A6213200F4B57
:1024C0009A6A12F0010F9A6A18BF142012F0200FB6
:1024D0009A6A18BF1520D40658BF9B6A074B9A6AA0
:1024E000920642BF5A6A22F400525A629A6A42F035
:1024F000FF029A6200230B7010BD00BF00ED00E0E8
:1025000070B5464B06465B6800258AB0C3F30803E6
:1025100085F31188BFF36F8F02F07F40B0F17F4FDA
:1025200011D102F00C0008280DD010074CBF0E4648
:1025300001250022033B8DF80720032B05D8DFE897
:1025400003F01E61655E2E46F3E700249DF8073018
:102550009BB92022314602A806F0CCFB099B002D36
:1025600058D0C3F3080222B96FEA53236FEA43231A
:102570000993204602A906F045FB0AB070BD274B1F
:10258000DA6A9107E1D4DA6A002ADEDBDA6A5200FD
:10259000DBD55A69B16942F480725A61BFF34F8F3B
:1025A000BFF36F8F31F8022C596921F480715961A2
:1025B000BFF34F8FBFF36F8F02F47F43B3F55F4FCD
:1025C00004D1D2B2022A01D13468BFE7134B9A6A10
:1025D000D2B232B101200DF10701FFF755FF0446D9
:1025E000B4E79A6A12F47F4F05D001200DF107017C
:1025F000FFF714FFF3E79B6AB3F5803FA5D3FFF71E
:10260000DFFEECE700200DF10701E6E700200DF109
:102610000701EDE76FF30803AAE700BF00ED00E054
:10262000064B5A6942F010025A615A6942F48062BC
:102630005A615A6922F008025A61704700ED00E0C1
:10264000EFF30880EFF3098101B57246FFF758FFF9
:1026500001BD00BF002080F31488BFF36F8F0020FE
:1026600080F30A8880F30B880F4880F3088801F014
:10267000F3FA00200D490860BFF34F8F00F02CF8EB
:10268000202080F311880A484FF40061401880F33D
:102690000988EFF314800221084380F31488BFF304
:1026A0006F8F00F0A5F80000A06C002094ED00E012
:1026B00060230020002318460649D1F89020C2F379
:1026C0000722934200DB7047C1F89830C1F8A000A0
:1026D0000133F6E700ED00E010B572B6002484F394
:1026E0001388FFF7E7FF23464FF0FF300C4A03F152
:1026F00020010133102B42F82100F8D100234FF0C4
:10270000FF30074A03F160010133102B42F821002A
:10271000F8D162B6BFF34F8FBFF36F8F10BD00BF0C
:1027200000E100E01EF0040F0CBFEFF30880EFF3B0
:102730000980816911F8021C0229FFD001B5724697
:1027400006F066FA01BD00BF00B2002807DB0123D6
:102750004109034A00F01F00834042F821307047CE
:1027600000E100E000B200280CDB01220649430929
:1027700000F01F008240203341F82320BFF34F8F29
:10278000BFF36F8F704700BF00E100E0054B4209C7
:1027900053F82220012300F01F0003FA00F010403C
:1027A000704700BF00E100E000B2002801F1010124
:1027B000ACBF00F16040064B4FEA4111C9B2ABBF5C
:1027C00000F5614000F00F0080F8001319547047C5
:1027D00014ED00E0044B054A23F07F039360BFF340
:1027E0004F8FBFF36F8F70470000000000ED00E0D7
:1027F00008B5FFF7EFFF074AD2F8883023F47003DB
:10280000C2F88830FFF7B0FDFFF7BAFD00F092F88C
:1028100002F07AF900ED00E042F8203C009B0B4901
:1028200042F81C3C019B21F0010142F8183C029B3C
:1028300042F8081C42F8143C4FF0807342F8043C04
:102840000023203A0265C367704700BFED8800008F
:1028500000B50B4B0E4698601546C36E83F30B888C
:102860002C4686F309880020034B98472046002118
:1028700000220023014C20473D8C0000ED88000021
:10288000101600201022014B1A61704700ED00E085
:10289000054B5A699B689A421FBF044A536843F02C
:1028A00080535360704700BF1016002000ED00E019
:1028B000084B9B6883420BD1EFF3058343B1064B72
:1028C0005A6842F080525A605A6A22F400425A62B0
:1028D00002F00CBD1016002000ED00E013498A68DC
:1028E0004FF030001044EFF3098C80E8F01F2020F7
:1028F00080F31288BFF36F8F0D4F4FF000664A6967
:102900008A603E60D06F0023D36780F3118802F1A4
:10291000300090E8F01F8CF3098802F1000004B544
:1029200006F085F9BDE8044070470000101600204D
:1029300004ED00E00023202040F20F1210B5044CFB
:10294000E1180133934281F80003F9D110BD00BFB3
:1029500000E100E008B5EFF30583064A103B02EB07
:10296000C30152F8330049688847BDE80840FFF7C3
:102970008FBF00BF48AE00001FB50121094B0A4AB6
:102980000A4800F0F7F80023064A0393084B012198
:10299000019301A8D31A029300F0F6F805B05DF890
:1029A00004FB00BF00F0032000000020FCB7000083
:1029B000900300200A7A0B6810B562F304031C46EA
:1029C000CB68520923F01F0343EA4203044A43F051
:1029D0000103C2F89800C2F89C40C2F8A03010BDB4
:1029E00000ED00E010B5074BD3F89030C3F3072398
:1029F000013B984202D8FFF7DDFF10BD6FF01500D4
:102A0000FBE700BF00ED00E02DE9F04F0F46144654
:102A100006464FF000084B4D85B0B84580F28E80D9
:102A2000D6F80490B9F1000F35D0B9F11F0F40F27C
:102A3000838019F01F0F7FD1D6F800A01AF01F0F66
:102A40007AD1504606F01DF9834609EB0A00013899
:102A500006F017F983456FD11BF1160F6CD05C455A
:102A60006ADDC5F898B0D5F89C10C5F898B0D5F8CF
:102A7000A03021F01F0143F01F0AD6E900321A44AA
:102A8000994202F1FF391BD1CA4508D131465FFA9C
:102A90008BF006F0FFF808F101080C36BDE731466F
:102AA000C5F898B0D5F89C30E0B263F30402C5F8DD
:102AB0009C2006F0EFF810F1160F3DD0441CEAE719
:102AC000C5F898B0D5F8A020013B23F01F0302F011
:102AD0001F021343CA453146E0B2C5F8A030E8D022
:102AE00006F0D8F810F1160F26D0C5F898B0D5F832
:102AF0009C209DF808300AF1FF3A62F304038DF838
:102B00000830D5F8A0309DF808205B0863F3471221
:102B10008DF80820D6E900321344009323F01F03F8
:102B20005344A3EB0903013023F01F036946C0B2ED
:102B30000393FFF757FFBEE76FF01504204605B07B
:102B4000BDE8F08F00ED00E00522044BC3F89420AF
:102B5000BFF34F8FBFF36F8F704700BF00ED00E0F2
:102B6000BFF35F8F0022024BC3F89420704700BF71
:102B700000ED00E010B5034C2278FFF745FF207010
:102B800010BD00BF541B00202DE9F74F294D8A4688
:102B900006464FF00008AB46274FD0451BDAD6F863
:102BA0000490B9F1000F3FD031680846019106F05A
:102BB00068F80199044609EB0100013806F061F854
:102BC00084424FF014021D4B08D002FB08F36FF053
:102BD00015024BF8032003B0BDE8F08F14F1160F77
:102BE0002C60F8D01978A142F5DD02FB08B0C7F8D7
:102BF0009840C7F89840D7F89C4000F10801007B46
:102C000064F304000871D7F8A0000C79400860F361
:102C100047140C71D7F89C1021F01F016960D7F898
:102C2000A01021F01F01296108F1010814350C36AC
:102C3000B3E700BF3C15002000ED00E0541B00206E
:102C4000F0B55349534DD1F890302C68C3F30723A6
:102C50009C4287B000F299800020FFF781FF4E4B25
:102C6000C1F8C030844216D14C4D01A82C70FFF73A
:102C700023FB002607464A4CB74213D100202B788D
:102C80004349D1F89020C2F30722934277DBFFF744
:102C90005BFF002046E0696801EB0011FFF78AFE48
:102CA0000130DFE70199300101EB0613DA682240B9
:102CB000B2F1807F52D00AD8B2F5001F34D0B2F5FD
:102CC000800F3ED0B2F5801F12D00136D4E7B2F1AA
:102CD000006F43D0B2F1805FF7D15A689B68095802
:102CE000013B22F01F00034423F01F03012032E0C8
:102CF0005A689B680958013B22F01F0003440120D9
:102D0000844623F01F0340EA4C10CDE902218DF8E0
:102D1000100002A928780593FFF764FE00282ADA3C
:102D20006FF0150007B0F0BD5A689B680958013B69
:102D300022F01F0003444FF0020C012023F01F0378
:102D4000E1E75A689B680958013B22F01F000344E1
:102D5000022023F01F034FF0000CD4E75A689B6851
:102D60000958013B22F01F0003444FF0030C0120DF
:102D700023F01F03C7E72B7801332B70A5E7C1F8B9
:102D80009830C1F8A00001337BE74FF0FF30C9E76E
:102D900000ED00E008B80000AAFF4400541B00202A
:102DA0000000F0FF08B5024805F093FDFEE700BF04
:102DB0008ED50000014B1860704700BF4001002015
:102DC000164B174A10B51A6000F04AF800204FF46D
:102DD0007A641449144BC1F80409D3F82036C3F3BC
:102DE0000802C3F30943634342F21C5482F4807225
:102DF00002F2172204FB02334FF47A741B0AB3FB6E
:102E0000F4F204FB1233B3F5FA7F28BF0132C1F8A4
:102E10001C27C1F80009002010BD00BF400200209F
:102E20000020A1070000125000C0FF0048B1054B70
:102E3000054A1B68B3FBF2F35843044B43F001030C
:102E4000184770474002002040420F0050B7000072
:102E50000020024BC3F8D406704700BF00600D503D
:102E60000122024BC3F80424704700BF002008E091
:102E70000022024BC3F80424704700BF002008E082
:102E8000084B70B5C31A0D4607499B1004465943B9
:102E90004022064805F051FF2B4601462046BDE87A
:102EA0007040184764150020B76DDBB6A0AD000078
:102EB000402373B50B4C0093041B0B460D460A4987
:102EC000A41061430646094A094805F062FF01461D
:102ED00028B130462B4602B0BDE87040184702B01A
:102EE00070BD00BF64150020B76DDBB6FF8D00001C
:102EF000A0AD0000F8B500220121054640F2051002
:102F0000FFF752FC0F4800F045FF0446B8B900F047
:102F100061FF2F690C49384605F041FD031E09DBAE
:102F200001263E642D69084905F11C0005F037FDB6
:102F3000031E02DA1C462046F8BDEE64FBE76FF084
:102F40000404F8E77530000030B800001FB5002217
:102F500001236C46CDE902236B46074ACDE90044C4
:102F600005F046FF28B943F609520023684601F0F0
:102F700027FF04B010BD00BF118E000010B5EFF3A5
:102F80001184202383F31288BFF36F8F074A1368DD
:102F900023F00201DB07116002D4012006F076F96C
:102FA00084F31188BFF36F8F10BD00BFB4150020EC
:102FB0000C22104B014602FB0033002030B4D3E951
:102FC0000E529863EFF31180202484F31288BFF32C
:102FD0006F8F1C6C04F0C00444F002041C6480F386
:102FE0001188BFF36F8F1DB12B4630BC02481847C4
:102FF00030BC704764150020A0AD000010B4EFF3A2
:103000001180202282F31288BFF36F8F16490B685C
:1030100043F0020413F001030C6017D0134BD3F8F4
:103020000C3413F4803311D0EFF3118182F3128842
:10303000BFF36F8F0E4A136C03F0C00343F002031B
:10304000136481F31188BFF36F8F012380F311881C
:10305000BFF36F8F1BB1002010BCFFF7A9BF012089
:1030600010BC06F00BB900BFB415002000E01050F2
:1030700064150020022808D0042808D1044B186CDD
:1030800010F0070003D1FFF793BF0120FBE7704763
:1030900064150020C3B21C20014A00FB03207047C6
:1030A000641500202DE9F041012280463549D1E820
:1030B000EF3FC1E8E02F0028F9D133B93249334856
:1030C0004B60CB608A6005F07DFC08F1FF33012B7B
:1030D0004BD8B8F1010F06D12D4BD3F8503403F083
:1030E0000303012B41D006F06CFB054650B1EFF312
:1030F0001186202383F31288BFF36F8F0125244CA0
:10310000244F20E0244B1B78002BF0D00422204BCE
:103110000646C3F80823F2E74DB3304605F0A2FD9A
:10312000D4F8403413F0FF030DD1D4F8082152B184
:10313000C4F80831D4F8083120220123C4F84034FF
:10314000C7F8A0212361D4F84C24D4F84C34D2031E
:10315000E2D503F00303012B02D0B8F1010FDBD15C
:1031600055B186F31188BFF36F8FBDE8F081002160
:10317000202006F09AFBD3E70422054BC3F8042372
:10318000F3E700BF601500205015002080150020D7
:1031900000E0105000E100E05723002008B5074888
:1031A00006F0D3FA38B10648FFF704FE0448FEF7EC
:1031B00055FD002008BD6FF01200FBE710AE0000C7
:1031C000C53100000A2838B50446074D04D1AB6864
:1031D0000D2128465B689847AB6803485B68E1B2FD
:1031E0009847204638BD00BF10AE00000023024AB9
:1031F0000020C1E90023704700D017000048704745
:1032000054B80000024B0B6001231360704700BFED
:103210005CB8000008B501220448114606F0C5FA62
:10322000034B044A0020C3F80C2508BDB815002044
:1032300000B0045080000080F8B5041E0E4615460C
:103240002DDB184B9C422AD8C4F5BE1303F58053DE
:103250009A4224D8E2B14FF0FF324FF0FF331248C8
:1032600001F0AEFD40F20113104F2A46C7F80035B9
:1032700086B13146204605F03DFDBFF35F8FD7F89C
:1032800018344FF48073C7F80035074801F064FD27
:103290000020F8BDFF21204605F037FDEDE76FF077
:1032A0001500F6E7FFCF1700B815002000B0045056
:1032B00010B50C1E10461A460CDB084B9C4209D870
:1032C000C4F5BE1404F58054A24203D805F012FDE3
:1032D000002010BD6FF01500FBE700BFFFCF170007
:1032E0002DE9F04340F206354768D00648BF4FF05D
:1032F000030C3B7C02EA050558BFC2F3401C87B0B3
:1033000001F01F06B5F5837F144646EA43168DF893
:1033100003C045D00DD8062D44D005D8A5B1022D47
:1033200012D06FF0150038E0B5F5807FF9D1012596
:103330000AE040F20222954236D0B5F5407F35D002
:10334000B5F5007FEDD10425220331D501237A683C
:103350008B405360B86890BB5F2E06F01F034FEAA6
:10336000561175D83C4A52F82120C4F3004102EBB3
:103370008302D2F8803081F00101C4F3404423F489
:10338000706344EA410423F00F031C4344EA8C04B5
:1033900044EA0524C2F88040002007B0BDE8F0836D
:1033A0000925D1E70825CFE70625CDE70525CBE799
:1033B000630341BF01237A688B409360CAE73146BB
:1033C0000DF1020206F035F914F4403F80460CD1AD
:1033D0003146B86806F046F9B8F1000FDCD19DF827
:1033E0000210B86800F082FFD6E74FF0000901AB89
:1033F000CDE90199CDE90439CDF80C903146B86892
:1034000003AA06F05FF84845C6DB14F4003314D075
:103410009DF80330C4F3004484F001048DF80E30AD
:103420008DF80C508DF80D404B463146B86803AA14
:1034300000F0AEFE0028CFDAAEE7CDE904330DF19F
:10344000030303933146B86803AA06F03BF8F1E79B
:10345000203350F82330FFDE64B800004209022A0E
:10346000034670B503D0012A18D0CAB170BD0E4E04
:10347000326951680029F9D0012503F01F030C6857
:103480009D400029F2D08A682A4002D030464B681D
:1034900098473CB1236821461C46F2E7034EE7E714
:1034A000034EE5E72346F6E7F4AD0000D8AD000093
:1034B000BCAD000038B54568A868C0B106F0CCF8CE
:1034C0000146A0B9A86800F0D9FE044688B90246B2
:1034D0000949A86806F0AAF822460121DB20FFF777
:1034E00063F92246012140F20D10FFF75DF900203B
:1034F00038BD6FF00400FBE75D340000F0B54468B0
:103500001646A068227C01F01F0587B045EA4215E7
:1035100000286CD0B6F5001F04D1294606F0F4F857
:10352000002055E06268607CB6F5800F50624FF075
:10353000000001AA0190506039D1B3F1007F14BF9F
:10354000052304238DF804300023CDE904230393DD
:10355000E3680DF1030723FA01F111F0010139D1FC
:10356000B6F1A07F36D105F01F035F2D4FEA55104D
:1035700003F120033ED8214A52F8202052F823308C
:10358000DB0727D43A462946A06806F052F81630E1
:1035900018D002972946A06803AA05F093FF0028D7
:1035A00016DB01222946A06806F05EF8B8E7B3F101
:1035B000C06F05D0B3F1007F14BF01230223C1E720
:1035C0000323BFE73946A06800F09AFE0028E0DA3E
:1035D00007B0F0BD3A462946A06806F02AF8002850
:1035E000D8D19DF80310A06800F080FED2E76FF0FC
:1035F0008500EDE751F82330FFDE00BF64B800001E
:103600002DE9F04F002440F2FF188C46DFF80CA1A2
:103610004349E3B29C4501D800201EE050F82460E5
:10362000C6F3C325082DC6F308036CD83D4F4345A8
:1036300008BF4FF0FF33B6F1806F17F805904FEADF
:10364000166506D2013D022D09D8DFE805F0191FE5
:103650002200382D20D06FF08500BDE8F08FC2F831
:1036600004365E1C4DD05F2B4FEA53164ED82B4DBF
:1036700003F01F0755F826600125BD4075601EE068
:10368000C2F80C365D1C3CD0002619E0C2F810369A
:10369000E7E7C2F80836F5E75F2B03F01F054FEAAE
:1036A000531736D81D4E56F8276006EB8506D6F818
:1036B000805025F0E04545F08045C6F88050012651
:1036C00050F824704FEA531B3D0452BFB6464FF0EA
:1036D000010E00265F2B03F01F051AD85AF82B3075
:1036E000C7F3412703EB8505D5F880304FEA092B56
:1036F0004BEA87070B403B43334343EA4E03C5F88D
:103700008030013485E76FF01500A6E700235B6089
:10371000FFDE0023203553F82530F9E7ACB8000070
:10372000F0F0FCFFE0D600002DE9F04104460D4624
:10373000476806F046F888B12021EFF311831A4656
:1037400081F31288BFF36F8F60680068D0F8300192
:10375000D0B983F31188BFF36F8FEEE71E4B1B7850
:10376000002BE9D04FF02008642663681B68D3F86B
:103770003031FBB9012005F04AFD013EF5D10021B1
:10378000202006F092F8EFE77B6A00201D70636846
:10379000796A1B68C3F83C170121C3F84017C3F8C6
:1037A0003001D3F83001196582F31188BFF36F8FB0
:1037B000BDE8F081EFF311831A4688F31288BFF356
:1037C0006F8F61680968D1F830110029DCD183F36B
:1037D0001188BFF36F8FD2E75723002070B40F4CCE
:1037E000D4E90015501A63EB0506400940EAC660AB
:1037F0002026E0FB0615C4E9001500240025084931
:10380000C1E90023074BC3E90045EFF3118186F3BB
:103810001288BFF36F8F70BC01F044BFB00300206B
:1038200098030020A803002008B500220121E4200D
:10383000FEF7BAFF164A0020D2F8183723F44033B7
:10384000C2F8183700F0B0FE002820DB0120114933
:1038500000F036FF00281ADB00F080FE0E4B20F04F
:103860001F00C3E900010D4B0022C3E900014FF026
:10387000FF304FF0FF310A4BC3E90001094B0A4901
:10388000187A00F07BFE67220020084B1A6008BD02
:1038900000200E503C020020B003002090030020C6
:1038A0009803002034020020DD370000F4150020CA
:1038B00008B500F053FE064AD2E90032C01A054BA3
:1038C00061EB0201C3E90001400940EAC16008BDA3
:1038D000B0030020A803002010B500F041FF012034
:1038E000FFF7D8FB05F0B9F8BDE81040054B064AD4
:1038F0001B684FF47A70B3FBF2F35843034B43F069
:10390000010318474002002040420F0060B700004A
:10391000F7B5224B0146224F187A224BD7E90056C1
:10392000D3E900239E4208BF954211D1B1F1806FC7
:103930000ED24901012938BF012101224D1946F15A
:103940000006C7E9005603B0BDE8F04000F094BFA0
:10395000154BDFF858C0D3E90043DCE9002CA4186C
:1039600043EB0C0C4FF0200E22466346C1FB0E23A6
:10397000954276EB0301C7E900230DD2291B66EBC4
:103980000C04C82974F10004B4BF01210021009186
:1039900000F03CFF03B0F0BD0021F8E73402002046
:1039A000A003002098030020B0030020A8030020FB
:1039B00040EA0103C3F309033BBBB1F5784F24D8B8
:1039C000154BD3F874250F2A22D1B1F5F84F10D931
:1039D000D8B9D3F86C250F2A1AD1C3F868054FF46B
:1039E000F84002F5F91202F6F672C3F86C25A1F55B
:1039F000F84143F20503084A890A43EA0143C2F841
:103A000070050020C2F8743570476FF015007047DC
:103A10006FF01B00704700BF00B004504FF400610E
:103A2000014802F005B800BF571B002030B581687F
:103A300085B0103921F00F04054605F09DF81022DD
:103A40000146684605F061F910226846064905F00E
:103A500051F910236A462146284605F071F80038CE
:103A600018BF012005B030BDD6CE000030B50D46E0
:103A7000816887B0102302AA1039044605F04BF87C
:103A8000002802DA012007B030BD1022204602A92A
:103A900005F01BFB00283AD110221E4902A805F0B0
:103AA00019F900280CBF012302232B70204605F0D2
:103AB000F8FA012301460DF10702204605F02BF824
:103AC0000028DFDB9DF80730204603F00F021B09BA
:103AD0006A702B7101220DF1070105F0F6FA10B999
:103AE0006B78042B03D901236B7000232B71A26820
:103AF0002046203A22F00F02103AA91C05F0F8FAED
:103B00000028BFD12046E91C05F04BFBBBE703238F
:103B1000CBE700BFD6CE0000F0B5324F85B04600EF
:103B20000546694657F8260005F041FB044610B1EA
:103B3000FF2005B0F0BD013657F8260002A905F0B8
:103B400036FB012808D12A464921274804F0C8FF3E
:103B5000264B8DF80C40029300229DF800609DF8E2
:103B60000870234C3146207805F0A1FA48B3394655
:103B7000607805F09CFA20B3A378042B03D09DF85D
:103B8000031099421DD1E378042B03D09DF80B104C
:103B9000994216D12379042B0FD16379023BDBB212
:103BA000022B1AD9134B14482A46492104F098FFD6
:103BB0006079831E022BBCD9BAE79DF802109942A6
:103BC000EBD00132032A04F10604CBD10B482A467C
:103BD000492104F085FF0120ABE7094A52F8233060
:103BE000E1E700BF14B9000005D60000030103039C
:103BF000E9D60000F3D5000050D6000074D60000CE
:103C000008B90000064BD3F840231C2A05D1D3F88D
:103C10004403431E5842584170470020704700BF7C
:103C200000C0FF0003689A070CD50368DB070DD5B9
:103C30000922074BC3F80C250F22C3F804250122E3
:103C40001A60FEE7034B0360EF3B0360704700BF61
:103C500000801050F000FA5008B501233F4A404858
:103C6000C2F800383F4AD2F840231C2A04BF3E4A1B
:103C7000C2F80C34FFF7D6FF0830FFF7D3FF083047
:103C8000FFF7D0FF0830FFF7CDFF00F5F470FFF726
:103C9000C9FF364AD2F88C3043F44063C2F88C3006
:103CA0000022D30003F57F0303F54043D3F800144B
:103CB00001310AD0D3F8001439B1D3F8001401321D
:103CC000D3F80434402A0B60EBD1244BD3F84024C2
:103CD000002A3ED0FFF796FF48B1224BD3F8342399
:103CE000234B9A429EBF1D4B224AC3F84026FFF742
:103CF00089FF18B1204B214AC3F8AC27FFF782FF98
:103D000048B13422154BC3F82426D3F83C2622F4BC
:103D10000022C3F83C261A4BD3F80026D20744BF32
:103D20006FF00102C3F80026164BD3F8182522F0D5
:103D30000302C3F81825D3F8182542F00302C3F88C
:103D400018250A4AD2F88C3043F44063C2F88C300C
:103D500008BDC822C3F84024BCE700BF00001250D1
:103D600000C50D5000C0FF000030055000ED00E020
:103D7000001D0A1840E0A91E00A0085078000A049F
:103D800000E0105000B00450014B1B68184700BF02
:103D9000F815002010B50C4C237993B90123237139
:103DA0000A4B0028206018BF184600F0F3F850B9FD
:103DB00023680748002B08BF1846BDE8104000F0F4
:103DC00035B86FF0770010BDF8150020893D000070
:103DD0007992000008B5074B1B6853B140F20510FB
:103DE000FEF7D4FC28B9BDE8084040F20510FEF704
:103DF000ABBC08BDF815002038B504230A4C42F2CC
:103E00001075C4F80833012363610023C4F8083136
:103E1000D4F80831D4F84C34DB0304D5012005F084
:103E2000F6F9013DF6D138BD00E01050064A13798D
:103E30003BB9012110601171044A1846C2F84034A0
:103E400070476FF0770070470016002000E01050B8
:103E500010B51D4B1D4CD3F84C14D3F84C2411F461
:103E6000803F19D002F00302012A01D08AB9002252
:103E7000154BC3F840240022C3F80821D3F80821C9
:103E800001221A6122688AB9D3F80821002AFBD0DE
:103E900014E0FFF7B1FFEAE7D3F84824D107E6D5ED
:103EA000D3F850249207F4D422681AB10422C3F83C
:103EB000042310BDD3F80821002AFBD00022C3F848
:103EC0000821D3F80831F4E700E010500016002074
:103ED000F8B50125184C194ED4F80C3303F00C0337
:103EE00003B9F8BDB3FA83F30027C3F11F039A00A7
:103EF00002F5807292B202F1A04202F587121760B9
:103F000005FA03F1022B1268D8B2C4F8081310D1D5
:103F1000D4F84C34D4F84C349B070AD10423C4F8A9
:103F20004054C4F804332561D4F80C3303F00C0377
:103F3000D6E733689847F7E700E0105000160020F6
:103F4000712238B5104B0021C3F80823012242F238
:103F500010745A60C3F80011D3F800110B490A4DD0
:103F6000D1F840131C2908BFDA60D5F80C3413F4DB
:103F7000803305D0012005F04AF9013CF5D138BD68
:103F8000034A5371FBE700BF00E0105000C0FF0080
:103F900008160020054B0246187918B91A6001224C
:103FA0001A7170476FF07700704700BF0816002045
:103FB0000022164BC3F81021D3F81011C3F81821B2
:103FC000D3F81811C3F81421D3F814111049D1F8FB
:103FD00040131C2904BF01219960C3F80021D3F8C4
:103FE000002101221A600B4A126852B9074BD3F81C
:103FF0000021002AFBD00022C3F80021D3F80031B1
:1040000070477122C3F80423704700BF00E01050CE
:1040100000C0FF0008160020F8B50126194C1A4D03
:10402000D4F80C3303F0710303B9F8BDB3FA83F38A
:104030000021C3F11F039A0002F5807292B202F1CF
:10404000A04202F58712116006FA03F7042B1268EA
:10405000D8B2C4F8087308D0062B10D02B68984744
:10406000D4F80C3303F07103DEE702236B71C4F85C
:104070001411D4F814312023C4F80433EEE7697125
:10408000ECE700BF00E0105008160020036803F0C2
:104090001F025F2B02604FEA53129ABF024B53F884
:1040A00022000020704700BF1CB90000034A4309EA
:1040B000D35C00F01F001844C0B27047FBD600006C
:1040C000F0B50646002487B0114F019117F8012B77
:1040D00006AB03EBD20313F8143C02F00702D34003
:1040E00013F0010306D10134032CEFD1002318464D
:1040F00007B0F0BD074A03AD07CA85E8070055F8C9
:1041000024100A6A46F824200A62002AEBD0EEE75F
:104110000BD7000040B70000F7B504460846FFF78C
:10412000C5FF04EB4006B38A0D46DB072AD52046BF
:1041300005F0A6F92946204605F013F950B12046AE
:1041400005F025F90023276807EB8000C0F810353B
:10415000C0F810352946204605F042F9002101A893
:10416000B1820195FFF792FF019B00EB8300D0F82D
:104170008020064B134043F00203C0F8803008460D
:1041800003B0F0BD6FF01500FAE700BFF0F0FCFFE0
:104190002DE9F043044685B0084615461F46FFF753
:1041A00085FF0E46804625B3204605F0E5F818B990
:1041B000204605F0D6F818BB04EB4809B9F81430CE
:1041C00003F01C0313B16B78012B19D001238DF878
:1041D0000F3000233046CDE900536A1CAB1C0DF1B3
:1041E0000F0105F066F8B9F8143043F00303A9F89D
:1041F0001430002F3ED03146204605F0BDF820B9DE
:104200006FF0150005B0BDE8F0830022397823680F
:104210004FEA810C03EB8103C3F81025C3F8102586
:1042200004EB4802938A23F4604323F02003938233
:104230007D78FDB12468B8786444D4F810750E4BCD
:104240002D043B40C4F8103541F6F07305F44035B9
:1042500003EA06130005D4F810752B4300F4801010
:1042600003433B43C4F81035938A43EA413343F098
:10427000200393820020C5E70FE0ECFF70B590F8B3
:104280007440054690F8756044BB462221461430C0
:1042900004F03BFD2146134A2B6852F836608E42EB
:1042A00012D1002440F20D10C3F84441D3F8442148
:1042B0000D4A934208BFDB20FEF746FA0123204651
:1042C00085F874302B6670BDCAB2920002F580701A
:1042D000442A04BF1C501A580131E0E76FF0770000
:1042E000F1E700BF28B9000000A00D5090F875005C
:1042F000024B03EB800004F0A6BF00BF4402002085
:1043000010B5064B90F875000C4603EB800004F0E6
:1043100080FF0028A4BF2070002010BD44020020B0
:104320002DE9F04F804658F804BB90F87540DBF853
:1043300014136A4BC9B253F8342007468BB0584661
:1043400041F4003105F075F88203054639D50023A4
:10435000CDE907330993614BE60003EBC4046368BE
:1043600007A819460093FFF7ABFE331D03934FF0E8
:10437000000A5B4B0DF11C090293029A574912F88F
:10438000013B0292039A02EBD3028A5C03F007031B
:1043900022FA03F3DB071AD40AF1010ABAF1030F78
:1043A00009F10409E9D14FF400310022584605F023
:1043B00040F8009907A8FFF783FE0028D7D125F41D
:1043C00000350124002D73D10BB0BDE8F08F454BB3
:1043D00053440493D9F80060002EDDD096FAA6F677
:1043E000B6FA86F6049B1C7846EA44142046FFF78A
:1043F0005DFE07EB4000818AF208C1F3820305935A
:104400000193012319F8020006F0070603FA06F6E5
:1044100020EA060009F8020006A80694FFF736FE17
:10442000069A11F0100F02F1200250F82260059B4D
:10443000C6F3014623D04046019A214604F0B1FF5D
:1044400006A80694FFF722FE069BF6B2203350F82A
:104450002330C3F301439E4207D10021204604F0DC
:1044600071FF3146204604F06DFF06A80694FFF761
:104470000DFE0122069B02FA03F30362AAE7022E55
:1044800014BF022103212046059304F05BFF059B26
:10449000032B03D0022E07D1012BE6D12146404643
:1044A000019A04F07EFFE0E7032EDED1022BF4E751
:1044B00095FAA5F3B3FA83F304FA03F225EA0205A9
:1044C00003F5A2725BF8222007EB43034046B3F8E2
:1044D0006410C2F3014204F064FF73E728B90000DE
:1044E0000BD700000BD700000123034A03FA00F0AA
:1044F0009368034393607047A00000200123044A9F
:1045000003FA00F0936823EA00039360704700BF4A
:10451000A000002073B504460191EFF3118620231B
:1045200083F31288BFF36F8F0B4D019B6A6801A85C
:104530001340019304F06DFE002807DB01226B6835
:10454000824023EA02036B602070002086F311880A
:10455000BFF36F8F02B070BDA00000204FF0FF329C
:104560006FF0404330B5044CD4E90001824273EB54
:104570000105F9D330BD00BF40270E5030B50C25E2
:10458000074B1C1894F8544005FB0433C3E903128D
:1045900018750123034A8340C2F8243330BD00BF9D
:1045A000A000002000200E50F8B53E4C2278002AD2
:1045B00072D13D4BD3F8101521F00201C3F810154C
:1045C000D3F8101541F00101C3F810150521C3F807
:1045D000A4160421C3F8AC160723672101F00100DB
:1045E0000244013BD2B24FEA5101F7D1052A56D11C
:1045F00019464FF0010C2B4E00256720CFB204E086
:104600000CFA02F220EA0200013590FAA0F25FFAF9
:1046100085FEBE45B2FA82F2F2D301313275052928
:10462000224482F8547006F10C06E5D101210025E0
:104630001E489A0801FA02F212F0670F18BF1D50C7
:104640000433302BF5D1E420FEF77EF8164B1849E1
:10465000D3F8102503F5C07322F00202C3F89023AB
:1046600040F6FF72C3F8A82100221A60A3F58070FB
:1046700004338B420260F8D101250B4B0D4A1D66B5
:104680000D4B5D201B68B3FBF2F358430B4B2B43E0
:10469000984700202570F8BD6FF07700FBE76FF0BA
:1046A0008B00F8E7A000002000200E5000210E50E3
:1046B000B0210E5040420F004002002070B70000B1
:1046C00038B5244B0D46D3F8102594073CD4D3F8C5
:1046D000102542F00202C3F81025C0B1D3F84827D4
:1046E00012F0010202BFD3F8481741F00101C3F8EC
:1046F0004817184BD3F84017D3F844174800F9D49B
:104700002AB9D3F8482722F00102C3F84827124BF0
:10471000124A1B68B3FBF2F30E4A03EB4313B3B127
:10472000D2F84017D2F8441749000BD44FF0FF31AC
:104730002846FFF7EFFE044610B92878FFF7D4FEAD
:10474000204638BD013BEAE76FF07704F8E76FF0E9
:104750007304F5E700200E504002002040420F0095
:104760002DE9F047DFF89C9067234E4656F8044F3A
:104770000025E4434FF00108234F04F06704C7F815
:104780002833E9B2E4B9E420FDF7ECFF1E4BD3F87F
:10479000482722F00102C3F84827D3F8102522F059
:1047A0000102C3F81025D3F8102522F00202C3F845
:1047B000102501225A669A6689F80040BDE8F08704
:1047C000D9F8083008FA05FA0AEA030313F0670F6C
:1047D00002D00846FFF792FED9F80430DB4303F01D
:1047E000670313EA0A0F09D0002207EB0513C3F889
:1047F0002C25E30702D5304604F025FD6408013579
:10480000BFE700BFA000002000200E5070B51E467C
:104810001546174A9DF81010131893F854300C33AE
:1048200002EBC30442F833506660C6F3130204017E
:10483000A1B104F1A04404F56224C4F82055C4F8E1
:1048400024250C4C80000444236833B1FFF786FE16
:10485000A842B14101D20023236070BD04F1A043FE
:1048600003F56223C3F82055C3F82425F5E700BFFC
:10487000A000002000210E50F0B50E4D2B1893F82B
:10488000543000010C3355F8334005EBC3077E6804
:10489000641800F1A04021F0004146F1000641EA11
:1048A000C27100F5622045F833407E60C0F82815DB
:1048B000F0BD00BFA0000020F7B5284B284CD3F86E
:1048C0002C6304F188070EB903B0F0BD96FAA6F088
:1048D0000123B0FA80F08340DA43224926EA030636
:1048E000231893F85450830019440C2303FB054309
:1048F000DB6873B3D7E8EF3F03EA020CC7E8EECFFB
:10490000BEF1000FF6D1C340DB0719D5020102F159
:10491000A04202F56222D2F82435D2F82025D1F83F
:1049200000C0BCF1000FCED04FF0000CC1F800C0A9
:104930000C2101FB054529690091E9688847C2E718
:1049400005F10C0304EBC30C54F83320DCF80430FD
:10495000E5E70A68002AB6D00B60B4E700200E50E5
:10496000A000002000210E50044B40EA0120C3F8B3
:104970000005D3F80024D207FBD5704700B00450DF
:1049800038B5EFF31185202383F31288BFF36F8FBF
:10499000064B9C6804F0ECFE85F31188BFF36F8F23
:1049A0002046BDE83840FDF783BF00BF1016002049
:1049B00038B50A4B53F82040013053F82050A54237
:1049C00000D838BD606830B1037EDB0701D404F045
:1049D000A4FE0834F3E723689847FAE738B90000E3
:1049E000012270B5294B86B003201A70FFF7E0FF53
:1049F00005F028F80420FFF7DBFF254C254D26465F
:104A0000AE4204F130040FD300F0A6FB204CAC42C0
:104A100026D300F0B5FBFBF7DFFE1F4A938923F096
:104A20000103938106B070BD54F80C3C059354F813
:104A3000103C049354F8143C039354F8183C02932C
:104A400054F81C3C019354F8203C009354E90A2389
:104A500054E90C0100F0DAF954F8303C5E65CEE719
:104A6000D4E90A23B3F1FF3F08BFB2F1FF3F05D0FD
:104A700052EA0301206803D104F040FF3034C6E756
:104A80000649183000F07EFDF8E700BF57230020EC
:104A9000C0B60000C0B600004004002085980000A9
:104AA000882370B5134E012203FB0066002386B0F5
:104AB000CDE904230F220193CDE9023214234FF4F0
:104AC000A0720D4D0D4903FB0055044602FB001179
:104AD0000B4B3046009500F099F9337C2C7423F091
:104AE00004033374074B013403EBC423EE606B60A3
:104AF00006B070BDB803002010160020602B002007
:104B000077970000602300207FB50020FFF750FF5B
:104B1000284B03F5006282F3088883F30A88002497
:104B2000E023254D85F82230EC772C766C76AC7638
:104B300085F820406B6A43F4E0236B6285F82340DC
:104B4000FDF76EFDFDF79EFE4FF0FF33AB62EB62AB
:104B5000FEF776F8FDF710FF184800F087F90120FE
:104B6000FFF726FF0220164DFFF722FF00F032FB71
:104B7000144B4FF480425D61134B1449059301239C
:104B80002846CDE90343CDE90144114B009400F0E0
:104B90003DF906462B7C284623F004032B7404F0D1
:104BA0004EFE2046FFF77CFF31462846084AFDF7B7
:104BB0004FFE00BF6023002000ED00E0C80400208D
:104BC0004004002010160020ABD60000A02C0020CE
:104BD000E14900002DE9F341044617461E46EFF374
:104BE0001188202383F31288BFF36F8F304BC26884
:104BF0009B6872B18068984217D057EA060216D1B6
:104C000088F31188BFF36F8F6FF00F0002B0BDE81B
:104C1000F08193F90E1001322161C4E9023288F368
:104C20001188BFF36F8F0020F0E72169F3E793F954
:104C30000E1090F90E30994230DA9942A8BF194609
:104C400004F0A4FD054622464146CDE90076194808
:104C500000F0F4F90028E6D0EFF31186202383F367
:104C60001288BFF36F8FA068D0B1236821699C427E
:104C70000AD04BB193F90E309942A8BF19466FF094
:104C80007F039942B8BF194604F080FD40B1314618
:104C9000084804F007FE6FF00A00B7E70025D2E7E6
:104CA000002DF4D186F31188BFF36F8FF3E700BFB7
:104CB0001016002058230020F8B583680546002B05
:104CC00040D0234A926893423FD1C368012B03D955
:104CD000013BC3600020F8BDEFF31187202383F36D
:104CE0001288BFF36F8F0169806804F04FFD2C6854
:104CF000A54207D10023C5E9023387F31188BFF32A
:104D00006F8FE7E7002CF5D0D4E90032002613605E
:104D10005A60237CC4E9006623F002032374A66072
:104D200004F1180004F055FEAC6094F90E302046F2
:104D30002B61C4F8806004F082FD3946054804F018
:104D4000B1FDC7E76FF01500C5E74FF0FF30C2E7D0
:104D5000101600205823002070B5EFF31186202391
:104D600083F31288BFF36F8F0468A0421BD0D4B1C5
:104D7000D4E90032002513605A60237CC4E9005551
:104D800023F002032374A56004F1180004F021FE4F
:104D90002046C4F8805004F052FD3146BDE8704012
:104DA000064804F07FBDD0E902329A4218BF0133B1
:104DB000836086F31188BFF36F8F70BD5823002086
:104DC00013B5EFF31181202484F31288BFF36F8FA2
:104DD000846844B1013C846081F31188BFF36F8F14
:104DE000002002B010BD52EA030406D181F31188FD
:104DF000BFF36F8F6FF00F00F3E7CDE9002302469A
:104E0000014800F01BF9ECE7582300202DE9FF4191
:104E10000E9E00F1580586810426C0E9165500252E
:104E2000044606740D9EC0E906558673D61D0C9A7D
:104E300026F00706C0E91B168560C5734567029218
:104E40000B9A01EB060801920A9A00924246FDF77E
:104E5000E3FC054B65659B6803B19B6F4046A36708
:104E600004B0BDE8F08100BF1016002001230374D8
:104E700083810023C0E91B338367014B986070472F
:104E8000101600206FF00A01094A9368C3F88010D9
:104E90000849D8674B6843F080534B60002383F385
:104EA0001188BFF36F8F9368D3F88000704700BFFD
:104EB0001016002000ED00E070B590F91020037C82
:104EC000002A2FDBD9062DD11A4C63F07F0322462E
:104ED000037452F8183FE169934207D1C0E90021F9
:104EE0000860E0610FE09942F8D01B68002BF5D014
:104EF00093F90E6090F90E50AE42F4DD5968C0E9A6
:104F0000003108605860A569954200D005B9E56890
:104F1000A3681A7CD20606D1DA897F2A03D9AA6946
:104F20000AB9636170BDAB4202D0284600F0ACFA0A
:104F30006561F7E71016002038B590F9102001469A
:104F4000002A037C04DA03F07F03037404F03FFCBF
:104F50000D4D2A4652F8184FAB68944200D004B960
:104F6000EC688B4207D01A7CD20604D1DA897F2AFA
:104F700001D9A2692AB1A34202D0204600F084FAE6
:104F800023466B6138BD00BF10160020B3F1FF3F10
:104F900008BFB2F1FF3F03D00249183000F0F2BA67
:104FA000704700BF85980000034648B9EFF30582BB
:104FB00032B9064A51699268914201D0FFF762BF47
:104FC00083F31188BFF36F8F704700BF1016002066
:104FD00038B5184CA168E0690B68814214BF1A46C5
:104FE000002249680B605960A368E1692AB9124A36
:104FF000C3E900210B60E3610AE092F90E5093F9D6
:105000000E00854212DD5168C3E900210B60536038
:10501000A569094B9D4200D005B9E568A3689D428A
:1050200002D0284600F030FA656138BD8A42DED0F1
:105030001268DBE71016002028160020F8B5DDE91D
:1050400006670D4B0C46986811460C4A1060EFF34A
:105050001182202282F31288BFF36F8F9D68284649
:1050600004F0C7FB284632463B46FFF78FFF204639
:10507000BDE8F840FFF706BF1016002030160020EC
:10508000F8B50446EFF31187202383F31288BFF3AA
:105090006F8F037C49B203F01F02002A0CBF012668
:1050A000002635D103F07F032A4D037404F08FFBF3
:1050B0002A46037C817363F07F03037452F8183F20
:1050C000E869934207D1C4E900200460EC610DE077
:1050D0009842F8D01B68002BF5D093F90EC08C4590
:1050E000F6DD5968C4E900310C605C60AC6994423B
:1050F00000D004B9EC68AB689C4202D0204600F0B6
:10510000C3F96C6187F31188BFF36F8F3046F8BD28
:105110009B071CD5856804F05AFB81732B689D4260
:1051200009D16B68C4E900531C606C60EAE76A68E7
:105130009A42F6D01B68002BF3D093F90E208A42D6
:10514000F5DD5A68C4E9003214605C60DAE7817307
:10515000D8E700BF10160020EFF31181202383F35E
:105160001288BFF36F8F054B9A68D37B013BD373D3
:1051700081F31188BFF36F8F704700BF10160020B6
:1051800070B5EFF31186202383F31288BFF36F8F7E
:105190000F4DAB68DA7B0132DA732A4652F8184FAA
:1051A000944200D004B9EC681A7CD20604D1DA89A2
:1051B0007F2A01D9A2692AB19C4202D0204600F080
:1051C00063F923466B613046BDE87040FFF7ECBEE3
:1051D00010160020024B03F11802C3E906227047A3
:1051E0001016002070B5EFF31186202383F3128888
:1051F000BFF36F8F1A4CA168E0690B68814214BF3E
:105200001A46002249680B605960A368E1692AB90F
:10521000144AC3E900210B60E3610AE092F90E50E1
:1052200093F90E00854216DD5168C3E900210B6039
:105230005360A5690B4B9D4200D005B9E568A36892
:105240009D4202D0284600F01FF965613046BDE856
:105250007040FFF717BE8A42DAD01268D7E700BF66
:105260001016002028160020F8B550EA0103064663
:105270000C4603D1FFF7B6FF0020F8BDEFF311870E
:10528000202383F31288BFF36F8F124D124BA8684F
:105290001860FFF751FEA868234632460F491830C0
:1052A00000F070F9AA680446137C384643F0040302
:1052B0001374FFF7E7FDAB68D3E90A23B3F1004F9E
:1052C00008BF002AD8D104F0B9FB201A20EAE07008
:1052D000D3E700BF1016002030160020859800008C
:1052E000014B9868704700BF101600202DE9F84365
:1052F00004468789EFF31186202383F31288BFF3D6
:105300006F8F037C190705D586F31188BFF36F8F64
:10531000BDE8F883D90943F008026FD10274A3688D
:1053200013B1204604F05BFA04F1180004F051FBBD
:10533000A56D04F15808A84511D04FF0000975B1CA
:10534000284604F04CFA05F1180004F042FB284608
:10535000C5F88090FFF7B0FDA56DA845EFD1DFF847
:10536000BC80D8F808309C4250D1EFF30589B9F1E0
:10537000000918BF4FF00109D8F81850284A954283
:1053800000D00DB9D8F80C50AB4202D0284600F03E
:105390007BF82046C8F8145003F04DFCB9F1000F1B
:1053A00002D02048FFF762FDD8F808309C4230D187
:1053B000EFF305836BBBA289D20711D586F3118861
:1053C000BFF36F8F83F31188BFF36F8F04231846E9
:1053D00002DFEFF31186202383F31288BFF36F8F70
:1053E0003046FFF74FFDFB0792D5002383F311886A
:1053F000BFF36F8F0423184602DF89E703F07F03B2
:1054000043F00803037404F0E2F988E74FF0000961
:10541000B2E786F31188BFF36F8FE4E71016002020
:1054200028160020C8040020027C034612F01F0248
:1054300010D10A4988420DD00949086868B1D98954
:105440007F2909D893F90E20064B1B689A42B8BFF2
:10545000002070470020704710467047B8030020B6
:105460004C020020341600200122044BC01A044BC9
:10547000C0105843034B1A54704700BF500500201A
:10548000ABAAAAAA5823002070B50C4B0C4D1E7C69
:10549000FFF7CAFF182303FB06550446284604F00D
:1054A00098FA0022074B9A553CB1621E2846BDE887
:1054B00070400549D31700F065B870BD1016002084
:1054C00050050020582300206954000038B5EFF340
:1054D0001185202383F31288BFF36F8F0F4B104A7F
:1054E0009C681068A04206D1FFF7CEFF85F31188B3
:1054F000BFF36F8F38BD00211B7C1160094AD35C5C
:10550000002BF3D02046FFF78FFF0028EED0237C3E
:10551000DB0601D1FFF75CFD2046E5E71016002011
:105520003016002058230020024B1868984208BF0C
:105530000020704750020020034B1B680BB9FEF798
:10554000B7B90020704700BF3816002030B570B1E1
:105550000B4B5B6898420AD0036843B1D3E904213E
:10556000D0E90445121941EB0501C3E90421D0E952
:10557000003213605A600023C0E9003330BD00BF21
:1055800050020020B3F1FF3F08BFB2F1FF3F2DE909
:10559000F84F0446994615461F467AD08160EFF3CE
:1055A0001188202383F31288BFF36F8FB9F1000FA6
:1055B000DFF8E4A020DBFFF7BFFFDAE900270135C1
:1055C00049F100092D1849EBE07306464FF0010937
:1055D000C4E90453AD1843EB0707FFF7A5FF0346E3
:1055E000DFF8B8E0DEF804A0EBB9C4E900EACAF8D5
:1055F0000040CEF8044028E06FF00103DAE9001221
:105600005B1A4FF0FF3161EB02025B1B62EB090298
:10561000012B72F10001BCBF012300224FF00009F1
:10562000C0E90432D9E7D3E9041CD4E904208A4252
:1056300070EB0C0B24DA891A5A686CEB0000C3E992
:105640000410C4E9003214605C60FFF76DFF84420F
:105650000ED1134B1B685BB9B9F1000F02D1FFF7F4
:105660006BFF0646304604F09DF90021FEF750F925
:1056700088F31188BFF36F8F28463946BDE8F88F4D
:10568000521A60EB0C005345C4E90420ADD01B68EE
:10569000AAE700252F46EFE768050020500200200A
:1056A000381600202DE9F047DFF8A8900246C9F827
:1056B00000000D46FFF738FF00260027DFF898802E
:1056C0004FEAE27ED8E9001350B1D0E9044CA2427F
:1056D0007EEB0C0A1ADAA41A6CEB0E06C0E904463B
:1056E0000024521843EB0E032046C8E90023C9F8F2
:1056F000004004F057F92146FEF70AF985F31188B6
:10570000BFF36F8FBDE8F047FFF7E0BE611843EBD2
:10571000E473C0E90467C8E90013FFF717FF01222B
:105720004FF00043C0E9042385F31188BFF36F8F66
:1057300083689847EFF31185202383F31288BFF322
:105740006F8FD9F80020121BC9F80020FFF7ECFE7C
:10575000B6E700BF381600206805002010B5EFF34B
:105760001184202383F31288BFF36F8FFFF7E4FEC9
:105770000346054AD2E90001181841EBE37184F3AE
:105780001188BFF36F8F10BD6805002001680E4AB5
:105790000346914215D1C169A2F11022A2F1EF1284
:1057A00091420ED18268012A0BD8C26812B10169F8
:1057B0008A4206D0586928B19B691B1A5842584141
:1057C00070470120704700BF55AA00FF70B50E4B0F
:1057D0009E68B6B13046FFF7D9FF044618B9F368A2
:1057E0007BB935690DB9204670BD2846FFF7CEFF5D
:1057F00028B9EB68B34204D12E462D69F2E704467E
:10580000F1E70124EFE700BF3C1600202DE9F0414D
:10581000404D06466869884604F017F918B100241F
:105820002046BDE8F0812C68DCB1AC68CCB1002E1C
:105830006AD0B8F1000F69D008FB06F7B7FBF6F69F
:10584000B04565D1391D63D8BA0710D027F00302DF
:105850000432EC6803E0616891420AD2A469002C2A
:10586000F9D1686904F0F7F80028D9D0D7E73A46AB
:10587000EFE7D4F808C0BCF1000F02D00120FDF71B
:1058800091FA891A232904F120061CD80123A36068
:10589000D4E90523AAB19361A3690BB162695A6186
:1058A0000023C4E905332B69DB0703D5FFF78EFF1F
:1058B0000028E3D13A4600213046344603F025FA69
:1058C000CFE7EB60E8E702F1200023182039C3E9B5
:1058D000011CDC602169DFF840C0196144F800C098
:1058E0000E48D86101B1CB6061695961A0699861C6
:1058F00041B18B61996901B14B6101212361C4E917
:105900000121CDE7EB60F5E73446AAE74446A8E776
:105910000446A6E73C16002055AA00FF669911EE42
:1059200070B5424E0546706904F08FF800287BD1AF
:10593000002D5FD03368002B5CD0B268002A59D0AC
:105940009D4203D3726813449D4202D30120FDF7A8
:1059500029FAA5F120042046FFF718FF0028F5D109
:1059600055F8183C012BF1D155F8143C45F8180CAA
:10597000C3B19A68002A42D155F81C2C02F12001CB
:105980005A680A445A6055E905321A6155F8145CA0
:105990002B6903B1DD6020462022002103F0B5F918
:1059A00023462C462069002836D08268002A33D14D
:1059B0006368426820331344636003692361D4E958
:1059C0000523F2B923BB436963618269A2610BB30A
:1059D0009C61A36903B15C61236903B1DC6020228F
:1059E000002103F092F933699B0703D5FFF7EEFE20
:1059F0000028ABD17069BDE8704004F02CB80023DA
:105A0000D0E79361A369002BDDD062695A61DAE7C0
:105A1000F360F7E7F460DCE7002BE4D1F368A361FF
:105A200003B15C61F460DEE770BD00BF3C1600208E
:105A300070B50C46164E182200210546304603F07C
:105A400064F91448706103F0FEFF1349134800F035
:105A500035F8232C1BD915F003031FBF043CE418B1
:105A6000C3F10403ED1822460021284603F04DF946
:105A7000C6E90054203CB5606C60B368084A1A60FF
:105A8000B368A2F11022A2F1EF12DA61F36070BDE7
:105A90003C16002058020020215900000D5800003B
:105AA00055AA00FF014B1B68184700BFBC0200202D
:105AB000014B1B68184700BFB8020020024B18605A
:105AC000024B002019607047BC020020B802002081
:105AD00010B50A46044619B1024B00211B689847CD
:105AE00010BD00BF50B900000E4B0340B3F1607F02
:105AF00006D1B1F5885F0CBF00206FF086007047BB
:105B0000B3F1707F0BD101F4E043B3F5005F06D130
:105B100011F4E06F14BF00206FF0860070476FF043
:105B2000860070470000C07F8A42F8B506460D46E1
:105B300000F00A8101F0FE41B1F1C06F61D1884CE3
:105B400022F4FF7121F00101A14222F0FF0014D0E4
:105B500004F58854A04210D022F47F7626F0030684
:105B6000A4F57064A64208D004F5A064A04204D055
:105B700004F57454A14240F0EB80D1B2784E19B9CB
:105B800022F48061B14224D125F4FF7424F0010491
:105B9000B44225F0FF0112D0724EB1420FD025F46D
:105BA0007F7727F00307A6F57066B74207D006F5A2
:105BB000A066B14203D006F57456B44209D115F07F
:105BC000FF0406D0684E44F00074B44204BF02469D
:105BD0000D468BB122F4FF7323F00103B3F1062FBE
:105BE00006D0624B22F4FF6121F00701994203D1F4
:105BF00022F4807225F48075954214BF00200120A4
:105C0000F8BDB1F1A06F16D102F0FE43B3F1A06F61
:105C100040F0888082EA050333F47E1340F08280EE
:105C200028047FD5C5F30540C2F3054290428CBFDE
:105C300000200120E4E74E4B9D4209D1A3F500432B
:105C40009A4200F081804B4B22F47E109842D4E7B8
:105C5000B1F1407F60D102F0FE43B3F1407F5BD1F0
:105C600082EA050030F47E1456D131462846FFF70B
:105C70003BFF00286AD1404912F47C1701EA020177
:105C800013D0B1F1607FC2F3054333D1D1B241F0FB
:105C9000007101F17E410339122901D83748445C73
:105CA00015F47C1F2DD19C42A7E7B1F1607F0AD18A
:105CB000D3B243F0007303F17E43033B122B4BD866
:105CC0002F49CB5CE2E7B1F1707F17D106F4E043D6
:105CD000B3F5005F42D10123C6F302218B4006F4E5
:105CE000E041B1F5005FDBD10120C6F3022600FAE6
:105CF00006F4D5E7B1F1707FD2D1F0E70024234656
:105D0000CEE71FB9C5F30541A1421DD0290403D533
:105D1000C5F3054098428AE71A4B9D4202D1B2F181
:105D2000082F6AE725F0004323F47F03B3F1106FD7
:105D30000CD102F0FE43B3F1106F07D112481040AE
:105D400040F01060A84258E7012059E7002057E7CB
:105D5000002B7FF446AF4FE7002397E70023BEE711
:105D60000002000600130006FF00000200400006CB
:105D70000093C004000140050000C07F0ED7000062
:105D80000ED700000002C0030000FFF630B5A0B33C
:105D900001F0FE43B3F1C06F57D12D4A21F4806367
:105DA000934252D02B4821F4875323F01F038342A0
:105DB0001FD021F0FF03934209D1C8B2264B40F017
:105DC0000070984214BF6FF08600002014E0234A50
:105DD00021F47F7020F0030090420AD002F5A06207
:105DE000934206D01E4B21F4FF7222F001029A4228
:105DF00029D111F0FF00E1D130BD154A21F4FF7324
:105E000023F00103934213D0164C21F0FF02A2426B
:105E10000ED021F47F7525F00305A4F57064A5422A
:105E200006D004F5A064A24202D00D4A93420CD1E0
:105E3000CBB2002BE0D1064B21F48061994218BF10
:105E40006FF08600D8E70020D6E76FF08600D3E732
:105E500000020006000300060B000002000400061A
:105E6000004600060013000670B505460F480E46B2
:105E700003F0EBFD044618B16FF08F04204670BDAF
:105E80006B6933602B7F012B0ABF022330602B77B5
:105E9000064818BF6FF0960403F0DDFD0028EDD032
:105EA000002CE9D06FF09604E8E700BFA0020020C4
:105EB00038B50C4C0C4803F0C8FD65780A4803F06F
:105EC000CAFD0A4803F0C1FD022D08D12478E31F62
